{
  "contractName": "AccessControl",
  "abi": [
    {
      "inputs": [],
      "payable": false,
      "stateMutability": "nonpayable",
      "type": "constructor"
    },
    {
      "anonymous": false,
      "inputs": [
        {
          "indexed": false,
          "name": "patient_address",
          "type": "address"
        },
        {
          "indexed": false,
          "name": "message",
          "type": "string"
        },
        {
          "indexed": false,
          "name": "_doctor",
          "type": "string"
        },
        {
          "indexed": false,
          "name": "doctor_address",
          "type": "address"
        }
      ],
      "name": "GrantDoctorAccess",
      "type": "event"
    },
    {
      "anonymous": false,
      "inputs": [
        {
          "indexed": false,
          "name": "patient_address",
          "type": "address"
        },
        {
          "indexed": false,
          "name": "message",
          "type": "string"
        },
        {
          "indexed": false,
          "name": "_doctor",
          "type": "string"
        },
        {
          "indexed": false,
          "name": "doctor_address",
          "type": "address"
        }
      ],
      "name": "RevokeDoctorAccess",
      "type": "event"
    },
    {
      "constant": false,
      "inputs": [
        {
          "name": "_doctor",
          "type": "address"
        }
      ],
      "name": "grantAccessToDoctor",
      "outputs": [],
      "payable": false,
      "stateMutability": "nonpayable",
      "type": "function"
    },
    {
      "constant": false,
      "inputs": [
        {
          "name": "_doctor",
          "type": "address"
        }
      ],
      "name": "revokeAccessFromDoctor",
      "outputs": [],
      "payable": false,
      "stateMutability": "nonpayable",
      "type": "function"
    }
  ],
  "bytecode": "0x608060405234801561001057600080fd5b50336000806101000a81548173ffffffffffffffffffffffffffffffffffffffff021916908373ffffffffffffffffffffffffffffffffffffffff1602179055506108ff806100606000396000f3fe608060405260043610610046576000357c0100000000000000000000000000000000000000000000000000000000900480631c8e251c1461004b578063629e559d1461009c575b600080fd5b34801561005757600080fd5b5061009a6004803603602081101561006e57600080fd5b81019080803573ffffffffffffffffffffffffffffffffffffffff1690602001909291905050506100ed565b005b3480156100a857600080fd5b506100eb600480360360208110156100bf57600080fd5b81019080803573ffffffffffffffffffffffffffffffffffffffff1690602001909291905050506104e0565b005b33600073ffffffffffffffffffffffffffffffffffffffff168173ffffffffffffffffffffffffffffffffffffffff1614151515610193576040517f08c379a00000000000000000000000000000000000000000000000000000000081526004018080602001828103825260168152602001807f50617469656e7420646f6573206e6f742065786973740000000000000000000081525060200191505060405180910390fd5b81600073ffffffffffffffffffffffffffffffffffffffff168173ffffffffffffffffffffffffffffffffffffffff1614151515610239576040517f08c379a00000000000000000000000000000000000000000000000000000000081526004018080602001828103825260158152602001807f446f63746f7220646f6573206e6f74206578697374000000000000000000000081525060200191505060405180910390fd5b6000600160003373ffffffffffffffffffffffffffffffffffffffff1673ffffffffffffffffffffffffffffffffffffffff16815260200190815260200160002060008573ffffffffffffffffffffffffffffffffffffffff1673ffffffffffffffffffffffffffffffffffffffff16815260200190815260200160002060009054906101000a900460ff1660ff1614151561033d576040517f08c379a00000000000000000000000000000000000000000000000000000000081526004018080602001828103825260198152602001807f446f63746f7220616c726561647920686173206163636573730000000000000081525060200191505060405180910390fd5b60018060003373ffffffffffffffffffffffffffffffffffffffff1673ffffffffffffffffffffffffffffffffffffffff16815260200190815260200160002060008573ffffffffffffffffffffffffffffffffffffffff1673ffffffffffffffffffffffffffffffffffffffff16815260200190815260200160002060006101000a81548160ff021916908360ff1602179055507f58718dd6c06446dcc92e2541e4f0b47304955a0d09bb175456f3de6e618a01f63384604051808373ffffffffffffffffffffffffffffffffffffffff1673ffffffffffffffffffffffffffffffffffffffff16815260200180602001806020018473ffffffffffffffffffffffffffffffffffffffff1673ffffffffffffffffffffffffffffffffffffffff168152602001838103835260188152602001807f4772616e7465642061636365737320746f20646f63746f7200000000000000008152506020018381038252600b8152602001807f446f63746f72204e616d6500000000000000000000000000000000000000000081525060200194505050505060405180910390a1505050565b33600073ffffffffffffffffffffffffffffffffffffffff168173ffffffffffffffffffffffffffffffffffffffff1614151515610586576040517f08c379a00000000000000000000000000000000000000000000000000000000081526004018080602001828103825260168152602001807f50617469656e7420646f6573206e6f742065786973740000000000000000000081525060200191505060405180910390fd5b81600073ffffffffffffffffffffffffffffffffffffffff168173ffffffffffffffffffffffffffffffffffffffff161415151561062c576040517f08c379a00000000000000000000000000000000000000000000000000000000081526004018080602001828103825260158152602001807f446f63746f7220646f6573206e6f74206578697374000000000000000000000081525060200191505060405180910390fd5b60018060003373ffffffffffffffffffffffffffffffffffffffff1673ffffffffffffffffffffffffffffffffffffffff16815260200190815260200160002060008573ffffffffffffffffffffffffffffffffffffffff1673ffffffffffffffffffffffffffffffffffffffff16815260200190815260200160002060009054906101000a900460ff1660ff1614151561072f576040517f08c379a000000000000000000000000000000000000000000000000000000000815260040180806020018281038252601b8152602001807f446f63746f7220646f6573206e6f74206861766520616363657373000000000081525060200191505060405180910390fd5b6000600160003373ffffffffffffffffffffffffffffffffffffffff1673ffffffffffffffffffffffffffffffffffffffff16815260200190815260200160002060008573ffffffffffffffffffffffffffffffffffffffff1673ffffffffffffffffffffffffffffffffffffffff16815260200190815260200160002060006101000a81548160ff021916908360ff1602179055507fd4827854c7e09bc71fb8edf73c6675046485e0a827ff3cc56b5affd53bb0100e3384604051808373ffffffffffffffffffffffffffffffffffffffff1673ffffffffffffffffffffffffffffffffffffffff16815260200180602001806020018473ffffffffffffffffffffffffffffffffffffffff1673ffffffffffffffffffffffffffffffffffffffff168152602001838103835260188152602001807f5265766f6b656420616363657373206f6620646f63746f7200000000000000008152506020018381038252600b8152602001807f446f63746f72204e616d6500000000000000000000000000000000000000000081525060200194505050505060405180910390a150505056fea165627a7a7230582080c95fdd2b1d0b01b3a2b231e2b1f81028f88ff216a55ba89feb4a00ba68afd30029",
  "source": "// SPDX-License-Identifier: MIT \r\npragma solidity >=0.5.0 <0.9.0;\r\n\r\ncontract AccessControl {\r\n    \r\n    address private owner;\r\n    mapping(address => mapping(address => uint8)) private patientToDoctor;\r\n\r\n    constructor() public { // Add \"public\" visibility specifier\r\n        owner = msg.sender;\r\n    }\r\n\r\n    modifier onlyOwner() {\r\n        require(msg.sender == owner, \"Caller is not the owner\");\r\n        _;\r\n    }\r\n\r\n    modifier checkDoctor(address _doctor) {\r\n        require(_doctor != address(0), \"Doctor does not exist\");\r\n        _;\r\n    }\r\n\r\n    modifier checkPatient(address _patient) {\r\n        require(_patient != address(0), \"Patient does not exist\");\r\n        _;\r\n    }\r\n\r\n    event GrantDoctorAccess(address patient_address, string message, string _doctor, address doctor_address);\r\n    event RevokeDoctorAccess(address patient_address, string message, string _doctor, address doctor_address);\r\n\r\n    function grantAccessToDoctor(address _doctor) public checkPatient(msg.sender) checkDoctor(_doctor) {\r\n        require(patientToDoctor[msg.sender][_doctor] == 0, \"Doctor already has access\");\r\n\r\n        patientToDoctor[msg.sender][_doctor] = 1;\r\n        emit GrantDoctorAccess(msg.sender, \"Granted access to doctor\", \"Doctor Name\", _doctor);\r\n    }\r\n\r\n    function revokeAccessFromDoctor(address _doctor) public checkPatient(msg.sender) checkDoctor(_doctor) {\r\n        require(patientToDoctor[msg.sender][_doctor] == 1, \"Doctor does not have access\");\r\n\r\n        patientToDoctor[msg.sender][_doctor] = 0;\r\n        emit RevokeDoctorAccess(msg.sender, \"Revoked access of doctor\", \"Doctor Name\", _doctor);\r\n    }\r\n\r\n    // Other functionalities can be added as needed\r\n}\r\n",
  "sourcePath": "C:\\Users\\USER\\Downloads\\EHR_Proj\\chain\\contracts\\AccessControl.sol",
  "compiler": {
    "name": "solc",
    "version": "0.5.1+commit.c8a2cb62.Emscripten.clang"
  },
  "schemaVersion": "3.4.16",
  "updatedAt": "2024-05-20T01:21:14.548Z",
  "networkType": "ethereum",
  "devdoc": {
    "methods": {}
  },
  "userdoc": {
    "methods": {}
  }
}