{
  "contractName": "DoctorRegistration",
  "abi": [
    {
      "anonymous": false,
      "inputs": [
        {
          "indexed": true,
          "name": "_doctor",
          "type": "address"
        },
        {
          "indexed": false,
          "name": "message",
          "type": "string"
        }
      ],
      "name": "DoctorSignUp",
      "type": "event"
    },
    {
      "constant": false,
      "inputs": [
        {
          "name": "_name",
          "type": "string"
        },
        {
          "name": "_contact",
          "type": "string"
        },
        {
          "name": "_specialization",
          "type": "string"
        }
      ],
      "name": "signupDoctor",
      "outputs": [],
      "payable": false,
      "stateMutability": "nonpayable",
      "type": "function"
    },
    {
      "constant": true,
      "inputs": [],
      "name": "getDoctorInfo",
      "outputs": [
        {
          "name": "",
          "type": "string"
        },
        {
          "name": "",
          "type": "string"
        },
        {
          "name": "",
          "type": "string"
        }
      ],
      "payable": false,
      "stateMutability": "view",
      "type": "function"
    }
  ],
  "bytecode": "0x608060405234801561001057600080fd5b50610aef806100206000396000f3fe608060405260043610610046576000357c010000000000000000000000000000000000000000000000000000000090048063502821f81461004b578063b380f5c614610241575b600080fd5b34801561005757600080fd5b5061023f6004803603606081101561006e57600080fd5b810190808035906020019064010000000081111561008b57600080fd5b82018360208201111561009d57600080fd5b803590602001918460018302840111640100000000831117156100bf57600080fd5b91908080601f016020809104026020016040519081016040528093929190818152602001838380828437600081840152601f19601f8201169050808301925050505050505091929192908035906020019064010000000081111561012257600080fd5b82018360208201111561013457600080fd5b8035906020019184600183028401116401000000008311171561015657600080fd5b91908080601f016020809104026020016040519081016040528093929190818152602001838380828437600081840152601f19601f820116905080830192505050505050509192919290803590602001906401000000008111156101b957600080fd5b8201836020820111156101cb57600080fd5b803590602001918460018302840111640100000000831117156101ed57600080fd5b91908080601f016020809104026020016040519081016040528093929190818152602001838380828437600081840152601f19601f8201169050808301925050505050505091929192905050506103a9565b005b34801561024d57600080fd5b50610256610799565b60405180806020018060200180602001848103845287818151815260200191508051906020019080838360005b8381101561029e578082015181840152602081019050610283565b50505050905090810190601f1680156102cb5780820380516001836020036101000a031916815260200191505b50848103835286818151815260200191508051906020019080838360005b838110156103045780820151818401526020810190506102e9565b50505050905090810190601f1680156103315780820380516001836020036101000a031916815260200191505b50848103825285818151815260200191508051906020019080838360005b8381101561036a57808201518184015260208101905061034f565b50505050905090810190601f1680156103975780820380516001836020036101000a031916815260200191505b50965050505050505060405180910390f35b6103b16109fc565b6000803373ffffffffffffffffffffffffffffffffffffffff1673ffffffffffffffffffffffffffffffffffffffff16815260200190815260200160002060606040519081016040529081600082018054600181600116156101000203166002900480601f0160208091040260200160405190810160405280929190818152602001828054600181600116156101000203166002900480156104945780601f1061046957610100808354040283529160200191610494565b820191906000526020600020905b81548152906001019060200180831161047757829003601f168201915b50505050508152602001600182018054600181600116156101000203166002900480601f0160208091040260200160405190810160405280929190818152602001828054600181600116156101000203166002900480156105365780601f1061050b57610100808354040283529160200191610536565b820191906000526020600020905b81548152906001019060200180831161051957829003601f168201915b50505050508152602001600282018054600181600116156101000203166002900480601f0160208091040260200160405190810160405280929190818152602001828054600181600116156101000203166002900480156105d85780601f106105ad576101008083540402835291602001916105d8565b820191906000526020600020905b8154815290600101906020018083116105bb57829003601f168201915b50505050508152505090506000816000015151141515610660576040517f08c379a00000000000000000000000000000000000000000000000000000000081526004018080602001828103825260158152602001807f446f63746f7220616c726561647920657869737473000000000000000000000081525060200191505060405180910390fd5b606060405190810160405280858152602001848152602001838152506000803373ffffffffffffffffffffffffffffffffffffffff1673ffffffffffffffffffffffffffffffffffffffff16815260200190815260200160002060008201518160000190805190602001906106d6929190610a1e565b5060208201518160010190805190602001906106f3929190610a1e565b506040820151816002019080519060200190610710929190610a1e565b509050503373ffffffffffffffffffffffffffffffffffffffff167fbf2b9eed013417b1539529d7a8a239f8c75a63f1bc414559a5f13ce0b12d3a366040518080602001828103825260148152602001807f5265676973746572656420617320446f63746f7200000000000000000000000081525060200191505060405180910390a250505050565b60608060606107a66109fc565b6000803373ffffffffffffffffffffffffffffffffffffffff1673ffffffffffffffffffffffffffffffffffffffff16815260200190815260200160002060606040519081016040529081600082018054600181600116156101000203166002900480601f0160208091040260200160405190810160405280929190818152602001828054600181600116156101000203166002900480156108895780601f1061085e57610100808354040283529160200191610889565b820191906000526020600020905b81548152906001019060200180831161086c57829003601f168201915b50505050508152602001600182018054600181600116156101000203166002900480601f01602080910402602001604051908101604052809291908181526020018280546001816001161561010002031660029004801561092b5780601f106109005761010080835404028352916020019161092b565b820191906000526020600020905b81548152906001019060200180831161090e57829003601f168201915b50505050508152602001600282018054600181600116156101000203166002900480601f0160208091040260200160405190810160405280929190818152602001828054600181600116156101000203166002900480156109cd5780601f106109a2576101008083540402835291602001916109cd565b820191906000526020600020905b8154815290600101906020018083116109b057829003601f168201915b505050505081525050905080600001518160200151826040015182925081915080905093509350935050909192565b6060604051908101604052806060815260200160608152602001606081525090565b828054600181600116156101000203166002900490600052602060002090601f016020900481019282601f10610a5f57805160ff1916838001178555610a8d565b82800160010185558215610a8d579182015b82811115610a8c578251825591602001919060010190610a71565b5b509050610a9a9190610a9e565b5090565b610ac091905b80821115610abc576000816000905550600101610aa4565b5090565b9056fea165627a7a72305820834b21041985739168862462752d0ed296940a59e409b0acc991501c7b16212f0029",
  "source": "// SPDX-License-Identifier: MIT \r\npragma solidity >=0.5.0 <0.9.0;\r\n\r\ncontract DoctorRegistration {\r\n    // Structure for doctor information\r\n    struct Doctor {\r\n        string name;\r\n        string contact;\r\n        string specialization;\r\n    }\r\n\r\n    // Mapping of doctor addresses to doctor information\r\n    mapping(address => Doctor) private doctors;\r\n\r\n    // Event emitted when a doctor signs up\r\n    event DoctorSignUp(address indexed _doctor, string message);\r\n\r\n    // Function for doctors to sign up\r\n    function signupDoctor(string memory _name, string memory _contact, string memory _specialization) public {\r\n        Doctor memory d = doctors[msg.sender];\r\n        require(bytes(d.name).length == 0, \"Doctor already exists\");\r\n\r\n        // Add the new doctor to the mapping\r\n        doctors[msg.sender] = Doctor({\r\n            name: _name,\r\n            contact: _contact,\r\n            specialization: _specialization\r\n        });\r\n\r\n        // Emit the DoctorSignUp event\r\n        emit DoctorSignUp(msg.sender, \"Registered as Doctor\");\r\n    }\r\n\r\n    // Function to retrieve doctor information\r\n    function getDoctorInfo() public view returns (string memory, string memory, string memory) {\r\n        Doctor memory d = doctors[msg.sender];\r\n        return (d.name, d.contact, d.specialization);\r\n    }\r\n}\r\n",
  "sourcePath": "C:\\Users\\USER\\Downloads\\EHR_Proj\\chain\\contracts\\DoctorRegistration.sol",
  "compiler": {
    "name": "solc",
    "version": "0.5.1+commit.c8a2cb62.Emscripten.clang"
  },
  "schemaVersion": "3.4.16",
  "updatedAt": "2024-05-20T01:21:14.386Z",
  "networkType": "ethereum",
  "devdoc": {
    "methods": {}
  },
  "userdoc": {
    "methods": {}
  }
}