{
  "contractName": "FileManagement",
  "abi": [
    {
      "anonymous": false,
      "inputs": [
        {
          "indexed": true,
          "name": "sender",
          "type": "address"
        },
        {
          "indexed": false,
          "name": "file_name",
          "type": "string"
        },
        {
          "indexed": false,
          "name": "file_type",
          "type": "string"
        },
        {
          "indexed": false,
          "name": "file_hash",
          "type": "string"
        }
      ],
      "name": "AddUserFiles",
      "type": "event"
    },
    {
      "constant": false,
      "inputs": [
        {
          "name": "_file_name",
          "type": "string"
        },
        {
          "name": "_file_type",
          "type": "string"
        },
        {
          "name": "_file_content",
          "type": "string"
        }
      ],
      "name": "addUserFiles",
      "outputs": [],
      "payable": false,
      "stateMutability": "nonpayable",
      "type": "function"
    },
    {
      "constant": true,
      "inputs": [
        {
          "name": "_sender",
          "type": "address"
        }
      ],
      "name": "getUserFiles",
      "outputs": [
        {
          "components": [
            {
              "name": "file_name",
              "type": "string"
            },
            {
              "name": "file_type",
              "type": "string"
            },
            {
              "name": "file_hash",
              "type": "string"
            }
          ],
          "name": "",
          "type": "tuple[]"
        }
      ],
      "payable": false,
      "stateMutability": "view",
      "type": "function"
    },
    {
      "constant": true,
      "inputs": [
        {
          "name": "_content",
          "type": "string"
        }
      ],
      "name": "calculateHash",
      "outputs": [
        {
          "name": "",
          "type": "string"
        }
      ],
      "payable": false,
      "stateMutability": "pure",
      "type": "function"
    },
    {
      "constant": true,
      "inputs": [
        {
          "name": "_bytes32",
          "type": "bytes32"
        }
      ],
      "name": "bytes32ToString",
      "outputs": [
        {
          "name": "",
          "type": "string"
        }
      ],
      "payable": false,
      "stateMutability": "pure",
      "type": "function"
    },
    {
      "constant": true,
      "inputs": [
        {
          "name": "_byte",
          "type": "uint8"
        }
      ],
      "name": "byteToChar",
      "outputs": [
        {
          "name": "",
          "type": "bytes1"
        }
      ],
      "payable": false,
      "stateMutability": "pure",
      "type": "function"
    }
  ],
  "bytecode": "0x608060405234801561001057600080fd5b50610e3b806100206000396000f3fe608060405260043610610067576000357c0100000000000000000000000000000000000000000000000000000000900480631fc379221461006c5780632ae48e40146100a95780639201de55146100d2578063a8cbcecd1461010f578063f9d5565b1461014c575b600080fd5b34801561007857600080fd5b50610093600480360361008e9190810190610937565b610189565b6040516100a09190610bfa565b60405180910390f35b3480156100b557600080fd5b506100d060048036036100cb91908101906109f3565b61040d565b005b3480156100de57600080fd5b506100f960048036036100f49190810190610960565b610551565b6040516101069190610c37565b60405180910390f35b34801561011b57600080fd5b50610136600480360361013191908101906109b2565b6106cf565b6040516101439190610c37565b60405180910390f35b34801561015857600080fd5b50610173600480360361016e9190810190610a8a565b610783565b6040516101809190610c1c565b60405180910390f35b60606000808373ffffffffffffffffffffffffffffffffffffffff1673ffffffffffffffffffffffffffffffffffffffff168152602001908152602001600020805480602002602001604051908101604052809291908181526020016000905b82821015610402578382906000526020600020906003020160606040519081016040529081600082018054600181600116156101000203166002900480601f0160208091040260200160405190810160405280929190818152602001828054600181600116156101000203166002900480156102a65780601f1061027b576101008083540402835291602001916102a6565b820191906000526020600020905b81548152906001019060200180831161028957829003601f168201915b50505050508152602001600182018054600181600116156101000203166002900480601f0160208091040260200160405190810160405280929190818152602001828054600181600116156101000203166002900480156103485780601f1061031d57610100808354040283529160200191610348565b820191906000526020600020905b81548152906001019060200180831161032b57829003601f168201915b50505050508152602001600282018054600181600116156101000203166002900480601f0160208091040260200160405190810160405280929190818152602001828054600181600116156101000203166002900480156103ea5780601f106103bf576101008083540402835291602001916103ea565b820191906000526020600020905b8154815290600101906020018083116103cd57829003601f168201915b505050505081525050815260200190600101906101e9565b505050509050919050565b6060610418826106cf565b90506000803373ffffffffffffffffffffffffffffffffffffffff1673ffffffffffffffffffffffffffffffffffffffff168152602001908152602001600020606060405190810160405280868152602001858152602001838152509080600181540180825580915050906001820390600052602060002090600302016000909192909190915060008201518160000190805190602001906104bb9291906107ec565b5060208201518160010190805190602001906104d89291906107ec565b5060408201518160020190805190602001906104f59291906107ec565b505050503373ffffffffffffffffffffffffffffffffffffffff167fac7fc8473c386f7e67fa8c3a50401bcac953937eab032882f271e1b406993eb585858460405161054393929190610c59565b60405180910390a250505050565b606060008090506060604080519080825280601f01601f19166020018201604052801561058d5781602001600182028038833980820191505090505b509050600091505b60208260ff1610156106c5576000848360ff166020811015156105b457fe5b1a7f0100000000000000000000000000000000000000000000000000000000000000027f01000000000000000000000000000000000000000000000000000000000000009004905061061460108260ff1681151561060e57fe5b04610783565b826002850260ff1681518110151561062857fe5b9060200101907effffffffffffffffffffffffffffffffffffffffffffffffffffffffffffff1916908160001a90535061067060108260ff1681151561066a57fe5b06610783565b826001600286020160ff1681518110151561068757fe5b9060200101907effffffffffffffffffffffffffffffffffffffffffffffffffffffffffffff1916908160001a905350508180600101925050610595565b8092505050919050565b606060006002836040518082805190602001908083835b60208310151561070b57805182526020820191506020810190506020830392506106e6565b6001836020036101000a038019825116818451168082178552505050505050905001915050602060405180830381855afa15801561074d573d6000803e3d6000fd5b5050506040513d601f19601f820116820180604052506107709190810190610989565b905061077b81610551565b915050919050565b6000600a8260ff1610156107be57603082017f01000000000000000000000000000000000000000000000000000000000000000290506107e7565b605782017f01000000000000000000000000000000000000000000000000000000000000000290505b919050565b828054600181600116156101000203166002900490600052602060002090601f016020900481019282601f1061082d57805160ff191683800117855561085b565b8280016001018555821561085b579182015b8281111561085a57825182559160200191906001019061083f565b5b509050610868919061086c565b5090565b61088e91905b8082111561088a576000816000905550600101610872565b5090565b90565b600061089d8235610d85565b905092915050565b60006108b18235610d97565b905092915050565b60006108c58251610d97565b905092915050565b600082601f83011215156108e057600080fd5b81356108f36108ee82610cd2565b610ca5565b9150808252602083016020830185838301111561090f57600080fd5b61091a838284610dae565b50505092915050565b600061092f8235610da1565b905092915050565b60006020828403121561094957600080fd5b600061095784828501610891565b91505092915050565b60006020828403121561097257600080fd5b6000610980848285016108a5565b91505092915050565b60006020828403121561099b57600080fd5b60006109a9848285016108b9565b91505092915050565b6000602082840312156109c457600080fd5b600082013567ffffffffffffffff8111156109de57600080fd5b6109ea848285016108cd565b91505092915050565b600080600060608486031215610a0857600080fd5b600084013567ffffffffffffffff811115610a2257600080fd5b610a2e868287016108cd565b935050602084013567ffffffffffffffff811115610a4b57600080fd5b610a57868287016108cd565b925050604084013567ffffffffffffffff811115610a7457600080fd5b610a80868287016108cd565b9150509250925092565b600060208284031215610a9c57600080fd5b6000610aaa84828501610923565b91505092915050565b6000610abe82610d0b565b80845260208401935083602082028501610ad785610cfe565b60005b84811015610b10578383038852610af2838351610b9c565b9250610afd82610d2c565b9150602088019750600181019050610ada565b508196508694505050505092915050565b610b2a81610d39565b82525050565b6000610b3b82610d21565b808452610b4f816020860160208601610dbd565b610b5881610df0565b602085010191505092915050565b6000610b7182610d16565b808452610b85816020860160208601610dbd565b610b8e81610df0565b602085010191505092915050565b60006060830160008301518482036000860152610bb98282610b66565b91505060208301518482036020860152610bd38282610b66565b91505060408301518482036040860152610bed8282610b66565b9150508091505092915050565b60006020820190508181036000830152610c148184610ab3565b905092915050565b6000602082019050610c316000830184610b21565b92915050565b60006020820190508181036000830152610c518184610b30565b905092915050565b60006060820190508181036000830152610c738186610b30565b90508181036020830152610c878185610b30565b90508181036040830152610c9b8184610b30565b9050949350505050565b6000604051905081810181811067ffffffffffffffff82111715610cc857600080fd5b8060405250919050565b600067ffffffffffffffff821115610ce957600080fd5b601f19601f8301169050602081019050919050565b6000602082019050919050565b600081519050919050565b600081519050919050565b600081519050919050565b6000602082019050919050565b60007fff0000000000000000000000000000000000000000000000000000000000000082169050919050565b600073ffffffffffffffffffffffffffffffffffffffff82169050919050565b6000610d9082610d65565b9050919050565b6000819050919050565b600060ff82169050919050565b82818337600083830152505050565b60005b83811015610ddb578082015181840152602081019050610dc0565b83811115610dea576000848401525b50505050565b6000601f19601f830116905091905056fea265627a7a72305820af2b5dd1b138485f823a901b97674914f8f0b42a707a0821983c11ba14dbffae6c6578706572696d656e74616cf50037",
  "source": "// SPDX-License-Identifier: MIT \r\npragma solidity >=0.5.0 <0.9.0;\r\n\r\npragma experimental ABIEncoderV2; // Add this line to enable experimental ABI encoder version 2\r\n\r\ncontract FileManagement {\r\n    struct File {\r\n        string file_name;\r\n        string file_type;\r\n        string file_hash;\r\n    }\r\n\r\n    mapping(address => File[]) private patientFiles;\r\n\r\n    event AddUserFiles(address indexed sender, string file_name, string file_type, string file_hash);\r\n\r\n    function addUserFiles(string memory _file_name, string memory _file_type, string memory _file_content) public {\r\n        // Hash the file content\r\n        string memory file_hash = calculateHash(_file_content);\r\n        \r\n        // Add the file to the patient's files\r\n        patientFiles[msg.sender].push(File({\r\n            file_name: _file_name,\r\n            file_type: _file_type,\r\n            file_hash: file_hash\r\n        }));\r\n\r\n        // Emit event\r\n        emit AddUserFiles(msg.sender, _file_name, _file_type, file_hash);\r\n    }\r\n\r\n    function getUserFiles(address _sender) public view returns (File[] memory) {\r\n        return patientFiles[_sender];\r\n    }\r\n    \r\n    // Function to calculate hash (SHA-256)\r\n    function calculateHash(string memory _content) public pure returns (string memory) {\r\n        bytes32 hash = sha256(bytes(_content));\r\n        return bytes32ToString(hash);\r\n    }\r\n    \r\n    // Function to convert bytes32 to string\r\n    function bytes32ToString(bytes32 _bytes32) public pure returns (string memory) {\r\n        uint8 i = 0;\r\n        bytes memory bytesArray = new bytes(64);\r\n        for (i = 0; i < 32; i++) {\r\n            uint8 value = uint8(_bytes32[i]);\r\n            bytesArray[i * 2] = byteToChar(value / 16);\r\n            bytesArray[i * 2 + 1] = byteToChar(value % 16);\r\n        }\r\n        return string(bytesArray);\r\n    }\r\n    \r\n    // Function to convert byte to char\r\n    function byteToChar(uint8 _byte) public pure returns (bytes1) {\r\n        if (_byte < 10) {\r\n            return bytes1(_byte + 48);\r\n        } else {\r\n            return bytes1(_byte + 87);\r\n        }\r\n    }\r\n}\r\n",
  "sourcePath": "C:\\Users\\USER\\Downloads\\EHR_Proj\\chain\\contracts\\FileManagement.sol",
  "compiler": {
    "name": "solc",
    "version": "0.5.1+commit.c8a2cb62.Emscripten.clang"
  },
  "schemaVersion": "3.4.16",
  "updatedAt": "2024-05-20T01:21:14.685Z",
  "networkType": "ethereum",
  "devdoc": {
    "methods": {}
  },
  "userdoc": {
    "methods": {}
  }
}