{
  "contractName": "PatientRegistration",
  "abi": [
    {
      "anonymous": false,
      "inputs": [
        {
          "indexed": true,
          "name": "_patient",
          "type": "address"
        },
        {
          "indexed": false,
          "name": "_name",
          "type": "string"
        },
        {
          "indexed": false,
          "name": "_contact",
          "type": "string"
        },
        {
          "indexed": false,
          "name": "_gender",
          "type": "string"
        },
        {
          "indexed": false,
          "name": "message",
          "type": "string"
        }
      ],
      "name": "PatientSignUp",
      "type": "event"
    },
    {
      "constant": false,
      "inputs": [
        {
          "name": "_name",
          "type": "string"
        },
        {
          "name": "_contact",
          "type": "string"
        },
        {
          "name": "_gender",
          "type": "string"
        }
      ],
      "name": "signupPatient",
      "outputs": [],
      "payable": false,
      "stateMutability": "nonpayable",
      "type": "function"
    },
    {
      "constant": true,
      "inputs": [],
      "name": "getPatientInfo",
      "outputs": [
        {
          "name": "",
          "type": "string"
        },
        {
          "name": "",
          "type": "address"
        },
        {
          "name": "",
          "type": "string"
        },
        {
          "name": "",
          "type": "string"
        }
      ],
      "payable": false,
      "stateMutability": "view",
      "type": "function"
    }
  ],
  "bytecode": "0x608060405234801561001057600080fd5b50610bc3806100206000396000f3fe608060405260043610610046576000357c010000000000000000000000000000000000000000000000000000000090048063326df6641461004b578063ab9cff1814610252575b600080fd5b34801561005757600080fd5b50610060610448565b60405180806020018673ffffffffffffffffffffffffffffffffffffffff1673ffffffffffffffffffffffffffffffffffffffff16815260200180602001806020018060200185810385528a818151815260200191508051906020019080838360005b838110156100de5780820151818401526020810190506100c3565b50505050905090810190601f16801561010b5780820380516001836020036101000a031916815260200191505b50858103845288818151815260200191508051906020019080838360005b83811015610144578082015181840152602081019050610129565b50505050905090810190601f1680156101715780820380516001836020036101000a031916815260200191505b50858103835287818151815260200191508051906020019080838360005b838110156101aa57808201518184015260208101905061018f565b50505050905090810190601f1680156101d75780820380516001836020036101000a031916815260200191505b50858103825286818151815260200191508051906020019080838360005b838110156102105780820151818401526020810190506101f5565b50505050905090810190601f16801561023d5780820380516001836020036101000a031916815260200191505b50995050505050505050505060405180910390f35b34801561025e57600080fd5b506104466004803603606081101561027557600080fd5b810190808035906020019064010000000081111561029257600080fd5b8201836020820111156102a457600080fd5b803590602001918460018302840111640100000000831117156102c657600080fd5b91908080601f016020809104026020016040519081016040528093929190818152602001838380828437600081840152601f19601f8201169050808301925050505050505091929192908035906020019064010000000081111561032957600080fd5b82018360208201111561033b57600080fd5b8035906020019184600183028401116401000000008311171561035d57600080fd5b91908080601f016020809104026020016040519081016040528093929190818152602001838380828437600081840152601f19601f820116905080830192505050505050509192919290803590602001906401000000008111156103c057600080fd5b8201836020820111156103d257600080fd5b803590602001918460018302840111640100000000831117156103f457600080fd5b91908080601f016020809104026020016040519081016040528093929190818152602001838380828437600081840152601f19601f8201169050808301925050505050505091929192905050506107ba565b005b606060006060806060610459610aac565b6000803373ffffffffffffffffffffffffffffffffffffffff1673ffffffffffffffffffffffffffffffffffffffff16815260200190815260200160002060a06040519081016040529081600082018054600181600116156101000203166002900480601f01602080910402602001604051908101604052809291908181526020018280546001816001161561010002031660029004801561053c5780601f106105115761010080835404028352916020019161053c565b820191906000526020600020905b81548152906001019060200180831161051f57829003601f168201915b50505050508152602001600182018054600181600116156101000203166002900480601f0160208091040260200160405190810160405280929190818152602001828054600181600116156101000203166002900480156105de5780601f106105b3576101008083540402835291602001916105de565b820191906000526020600020905b8154815290600101906020018083116105c157829003601f168201915b505050505081526020016002820160009054906101000a900473ffffffffffffffffffffffffffffffffffffffff1673ffffffffffffffffffffffffffffffffffffffff1673ffffffffffffffffffffffffffffffffffffffff168152602001600382018054600181600116156101000203166002900480601f0160208091040260200160405190810160405280929190818152602001828054600181600116156101000203166002900480156106d65780601f106106ab576101008083540402835291602001916106d6565b820191906000526020600020905b8154815290600101906020018083116106b957829003601f168201915b50505050508152602001600482018054600181600116156101000203166002900480601f0160208091040260200160405190810160405280929190818152602001828054600181600116156101000203166002900480156107785780601f1061074d57610100808354040283529160200191610778565b820191906000526020600020905b81548152906001019060200180831161075b57829003601f168201915b50505050508152505090508060000151816040015182602001518360600151846080015184945082925081915080905095509550955095509550509091929394565b33600073ffffffffffffffffffffffffffffffffffffffff166000808373ffffffffffffffffffffffffffffffffffffffff1673ffffffffffffffffffffffffffffffffffffffff16815260200190815260200160002060020160009054906101000a900473ffffffffffffffffffffffffffffffffffffffff1673ffffffffffffffffffffffffffffffffffffffff161415156108c0576040517f08c379a00000000000000000000000000000000000000000000000000000000081526004018080602001828103825260168152602001807f50617469656e7420616c7265616479206578697374730000000000000000000081525060200191505060405180910390fd5b60a060405190810160405280858152602001602060405190810160405280600081525081526020013373ffffffffffffffffffffffffffffffffffffffff168152602001838152602001848152506000803373ffffffffffffffffffffffffffffffffffffffff1673ffffffffffffffffffffffffffffffffffffffff1681526020019081526020016000206000820151816000019080519060200190610968929190610af2565b506020820151816001019080519060200190610985929190610af2565b5060408201518160020160006101000a81548173ffffffffffffffffffffffffffffffffffffffff021916908373ffffffffffffffffffffffffffffffffffffffff16021790555060608201518160030190805190602001906109e9929190610af2565b506080820151816004019080519060200190610a06929190610af2565b509050507f6efabf63be1e23f092459441ceb9eee29747fdd19affe330a72065b966b7052333604051808273ffffffffffffffffffffffffffffffffffffffff1673ffffffffffffffffffffffffffffffffffffffff16815260200180602001828103825260158152602001807f526567697374657265642061732050617469656e7400000000000000000000008152506020019250505060405180910390a150505050565b60a0604051908101604052806060815260200160608152602001600073ffffffffffffffffffffffffffffffffffffffff16815260200160608152602001606081525090565b828054600181600116156101000203166002900490600052602060002090601f016020900481019282601f10610b3357805160ff1916838001178555610b61565b82800160010185558215610b61579182015b82811115610b60578251825591602001919060010190610b45565b5b509050610b6e9190610b72565b5090565b610b9491905b80821115610b90576000816000905550600101610b78565b5090565b9056fea165627a7a72305820a442a5ad7df51f6577d0924596dfba85fb3f3b131de1598fbc05cf4a0e1150470029",
  "source": "// SPDX-License-Identifier: MIT\r\npragma solidity >=0.5.0 <0.9.0;\r\n\r\ncontract PatientRegistration {\r\n    // Structure for patient information\r\n    struct Patient {\r\n        string name;\r\n        string DOB;\r\n        address id;\r\n        string gender;\r\n        string contact_info;\r\n    }\r\n\r\n    // Mapping of patient addresses to patient information\r\n    mapping(address => Patient) private patients;\r\n\r\n    // Event emitted when a patient signs up\r\n    event PatientSignUp(address _patient, string message);\r\n\r\n    // Modifier to check if a patient already exists\r\n    modifier checkPatient(address _id) {\r\n        require(patients[_id].id == address(0), \"Patient already exists\");\r\n        _;\r\n    }\r\n\r\n    // Function for patients to sign up\r\n    function signupPatient(string memory _name, string memory _contact, string memory _gender) public checkPatient(msg.sender) {\r\n        patients[msg.sender] = Patient({\r\n            name: _name,\r\n            DOB: \"\", // Omitted for simplicity\r\n            id: msg.sender,\r\n            gender: _gender,\r\n            contact_info: _contact\r\n        });\r\n\r\n        emit PatientSignUp(msg.sender, \"Registered as Patient\");\r\n    }\r\n\r\n    // Function to retrieve patient information\r\n    function getPatientInfo() public view returns (string memory, address, string memory, string memory, string memory) {\r\n        Patient memory p = patients[msg.sender];\r\n        return (p.name, p.id, p.DOB, p.gender, p.contact_info);\r\n    }\r\n}\r\n",
  "sourcePath": "C:\\Users\\USER\\Downloads\\EHR_Proj\\chain\\contracts\\PatientRegistration.sol",
  "compiler": {
    "name": "solc",
    "version": "0.5.1+commit.c8a2cb62.Emscripten.clang"
  },
  "schemaVersion": "3.4.16",
  "updatedAt": "2024-05-20T01:21:14.251Z",
  "networkType": "ethereum",
  "devdoc": {
    "methods": {}
  },
  "userdoc": {
    "methods": {}
  }
}